{
  "_format": "hh-sol-artifact-1",
  "contractName": "DMTToken",
  "sourceName": "contracts/DMTToken.sol",
  "abi": [
    {
      "inputs": [
        {
          "internalType": "string",
          "name": "name_",
          "type": "string"
        },
        {
          "internalType": "string",
          "name": "symbol_",
          "type": "string"
        }
      ],
      "stateMutability": "nonpayable",
      "type": "constructor"
    },
    {
      "anonymous": false,
      "inputs": [
        {
          "indexed": true,
          "internalType": "address",
          "name": "owner",
          "type": "address"
        },
        {
          "indexed": true,
          "internalType": "address",
          "name": "spender",
          "type": "address"
        },
        {
          "indexed": false,
          "internalType": "uint256",
          "name": "value",
          "type": "uint256"
        }
      ],
      "name": "Approval",
      "type": "event"
    },
    {
      "anonymous": false,
      "inputs": [
        {
          "indexed": false,
          "internalType": "address",
          "name": "userAddress",
          "type": "address"
        },
        {
          "indexed": false,
          "internalType": "address payable",
          "name": "relayerAddress",
          "type": "address"
        },
        {
          "indexed": false,
          "internalType": "bytes",
          "name": "functionSignature",
          "type": "bytes"
        }
      ],
      "name": "MetaTransactionExecuted",
      "type": "event"
    },
    {
      "anonymous": false,
      "inputs": [
        {
          "indexed": true,
          "internalType": "address",
          "name": "from",
          "type": "address"
        },
        {
          "indexed": true,
          "internalType": "address",
          "name": "to",
          "type": "address"
        },
        {
          "indexed": false,
          "internalType": "uint256",
          "name": "value",
          "type": "uint256"
        }
      ],
      "name": "Transfer",
      "type": "event"
    },
    {
      "inputs": [
        {
          "internalType": "address",
          "name": "owner",
          "type": "address"
        },
        {
          "internalType": "address",
          "name": "spender",
          "type": "address"
        }
      ],
      "name": "allowance",
      "outputs": [
        {
          "internalType": "uint256",
          "name": "",
          "type": "uint256"
        }
      ],
      "stateMutability": "view",
      "type": "function"
    },
    {
      "inputs": [
        {
          "internalType": "address",
          "name": "spender",
          "type": "address"
        },
        {
          "internalType": "uint256",
          "name": "amount",
          "type": "uint256"
        }
      ],
      "name": "approve",
      "outputs": [
        {
          "internalType": "bool",
          "name": "",
          "type": "bool"
        }
      ],
      "stateMutability": "nonpayable",
      "type": "function"
    },
    {
      "inputs": [
        {
          "internalType": "address",
          "name": "account",
          "type": "address"
        }
      ],
      "name": "balanceOf",
      "outputs": [
        {
          "internalType": "uint256",
          "name": "",
          "type": "uint256"
        }
      ],
      "stateMutability": "view",
      "type": "function"
    },
    {
      "inputs": [],
      "name": "decimals",
      "outputs": [
        {
          "internalType": "uint8",
          "name": "",
          "type": "uint8"
        }
      ],
      "stateMutability": "view",
      "type": "function"
    },
    {
      "inputs": [
        {
          "internalType": "address",
          "name": "spender",
          "type": "address"
        },
        {
          "internalType": "uint256",
          "name": "subtractedValue",
          "type": "uint256"
        }
      ],
      "name": "decreaseAllowance",
      "outputs": [
        {
          "internalType": "bool",
          "name": "",
          "type": "bool"
        }
      ],
      "stateMutability": "nonpayable",
      "type": "function"
    },
    {
      "inputs": [
        {
          "internalType": "address",
          "name": "userAddress",
          "type": "address"
        },
        {
          "internalType": "bytes",
          "name": "functionSignature",
          "type": "bytes"
        },
        {
          "internalType": "bytes32",
          "name": "sigR",
          "type": "bytes32"
        },
        {
          "internalType": "bytes32",
          "name": "sigS",
          "type": "bytes32"
        },
        {
          "internalType": "uint8",
          "name": "sigV",
          "type": "uint8"
        }
      ],
      "name": "executeMetaTransaction",
      "outputs": [
        {
          "internalType": "bytes",
          "name": "",
          "type": "bytes"
        }
      ],
      "stateMutability": "payable",
      "type": "function"
    },
    {
      "inputs": [],
      "name": "getChainID",
      "outputs": [
        {
          "internalType": "uint256",
          "name": "id",
          "type": "uint256"
        }
      ],
      "stateMutability": "view",
      "type": "function"
    },
    {
      "inputs": [
        {
          "internalType": "address",
          "name": "user",
          "type": "address"
        }
      ],
      "name": "getNonce",
      "outputs": [
        {
          "internalType": "uint256",
          "name": "nonce",
          "type": "uint256"
        }
      ],
      "stateMutability": "view",
      "type": "function"
    },
    {
      "inputs": [
        {
          "internalType": "address",
          "name": "spender",
          "type": "address"
        },
        {
          "internalType": "uint256",
          "name": "addedValue",
          "type": "uint256"
        }
      ],
      "name": "increaseAllowance",
      "outputs": [
        {
          "internalType": "bool",
          "name": "",
          "type": "bool"
        }
      ],
      "stateMutability": "nonpayable",
      "type": "function"
    },
    {
      "inputs": [],
      "name": "name",
      "outputs": [
        {
          "internalType": "string",
          "name": "",
          "type": "string"
        }
      ],
      "stateMutability": "view",
      "type": "function"
    },
    {
      "inputs": [],
      "name": "symbol",
      "outputs": [
        {
          "internalType": "string",
          "name": "",
          "type": "string"
        }
      ],
      "stateMutability": "view",
      "type": "function"
    },
    {
      "inputs": [],
      "name": "totalSupply",
      "outputs": [
        {
          "internalType": "uint256",
          "name": "",
          "type": "uint256"
        }
      ],
      "stateMutability": "view",
      "type": "function"
    },
    {
      "inputs": [
        {
          "internalType": "address",
          "name": "to",
          "type": "address"
        },
        {
          "internalType": "uint256",
          "name": "amount",
          "type": "uint256"
        }
      ],
      "name": "transfer",
      "outputs": [
        {
          "internalType": "bool",
          "name": "",
          "type": "bool"
        }
      ],
      "stateMutability": "nonpayable",
      "type": "function"
    },
    {
      "inputs": [
        {
          "internalType": "address",
          "name": "from",
          "type": "address"
        },
        {
          "internalType": "address",
          "name": "to",
          "type": "address"
        },
        {
          "internalType": "uint256",
          "name": "amount",
          "type": "uint256"
        }
      ],
      "name": "transferFrom",
      "outputs": [
        {
          "internalType": "bool",
          "name": "",
          "type": "bool"
        }
      ],
      "stateMutability": "nonpayable",
      "type": "function"
    }
  ],
  "bytecode": "0x60806040523480156200001157600080fd5b506040516200255b3803806200255b83398181016040528101906200003791906200028f565b6040518060400160405280600381526020017f444d5400000000000000000000000000000000000000000000000000000000008152506040518060400160405280600181526020017f3100000000000000000000000000000000000000000000000000000000000000815250602a8282828060018190555060405180608001604052806052815260200162002509605291398051906020012083805190602001208380519060200120620000f06200016360201b60201c565b306040516020016200010795949392919062000335565b604051602081830303815290604052805190602001206000819055505050505050508160069080519060200190620001419291906200016d565b5080600790805190602001906200015a9291906200016d565b5050506200054a565b6000600154905090565b8280546200017b906200046f565b90600052602060002090601f0160209004810192826200019f5760008555620001eb565b82601f10620001ba57805160ff1916838001178555620001eb565b82800160010185558215620001eb579182015b82811115620001ea578251825591602001919060010190620001cd565b5b509050620001fa9190620001fe565b5090565b5b8082111562000219576000816000905550600101620001ff565b5090565b6000620002346200022e84620003bb565b62000392565b9050828152602081018484840111156200024d57600080fd5b6200025a84828562000439565b509392505050565b600082601f8301126200027457600080fd5b8151620002868482602086016200021d565b91505092915050565b60008060408385031215620002a357600080fd5b600083015167ffffffffffffffff811115620002be57600080fd5b620002cc8582860162000262565b925050602083015167ffffffffffffffff811115620002ea57600080fd5b620002f88582860162000262565b9150509250929050565b6200030d81620003f1565b82525050565b6200031e8162000405565b82525050565b6200032f816200042f565b82525050565b600060a0820190506200034c600083018862000313565b6200035b602083018762000313565b6200036a604083018662000313565b62000379606083018562000324565b62000388608083018462000302565b9695505050505050565b60006200039e620003b1565b9050620003ac8282620004a5565b919050565b6000604051905090565b600067ffffffffffffffff821115620003d957620003d86200050a565b5b620003e48262000539565b9050602081019050919050565b6000620003fe826200040f565b9050919050565b6000819050919050565b600073ffffffffffffffffffffffffffffffffffffffff82169050919050565b6000819050919050565b60005b83811015620004595780820151818401526020810190506200043c565b8381111562000469576000848401525b50505050565b600060028204905060018216806200048857607f821691505b602082108114156200049f576200049e620004db565b5b50919050565b620004b08262000539565b810181811067ffffffffffffffff82111715620004d257620004d16200050a565b5b80604052505050565b7f4e487b7100000000000000000000000000000000000000000000000000000000600052602260045260246000fd5b7f4e487b7100000000000000000000000000000000000000000000000000000000600052604160045260246000fd5b6000601f19601f8301169050919050565b611faf806200055a6000396000f3fe6080604052600436106100dd5760003560e01c8063395093511161007f57806395d89b411161005957806395d89b41146102ef578063a457c2d71461031a578063a9059cbb14610357578063dd62ed3e14610394576100dd565b8063395093511461024a578063564b81ef1461028757806370a08231146102b2576100dd565b806318160ddd116100bb57806318160ddd1461017a57806323b872dd146101a55780632d0335ab146101e2578063313ce5671461021f576100dd565b806306fdde03146100e2578063095ea7b31461010d5780630c53c51c1461014a575b600080fd5b3480156100ee57600080fd5b506100f76103d1565b60405161010491906117d5565b60405180910390f35b34801561011957600080fd5b50610134600480360381019061012f9190611395565b610463565b604051610141919061170e565b60405180910390f35b610164600480360381019061015f9190611306565b610486565b60405161017191906117b3565b60405180910390f35b34801561018657600080fd5b5061018f6106f8565b60405161019c9190611917565b60405180910390f35b3480156101b157600080fd5b506101cc60048036038101906101c791906112b7565b610702565b6040516101d9919061170e565b60405180910390f35b3480156101ee57600080fd5b5061020960048036038101906102049190611252565b610731565b6040516102169190611917565b60405180910390f35b34801561022b57600080fd5b5061023461077a565b6040516102419190611932565b60405180910390f35b34801561025657600080fd5b50610271600480360381019061026c9190611395565b610783565b60405161027e919061170e565b60405180910390f35b34801561029357600080fd5b5061029c61082d565b6040516102a99190611917565b60405180910390f35b3480156102be57600080fd5b506102d960048036038101906102d49190611252565b610837565b6040516102e69190611917565b60405180910390f35b3480156102fb57600080fd5b50610304610880565b60405161031191906117d5565b60405180910390f35b34801561032657600080fd5b50610341600480360381019061033c9190611395565b610912565b60405161034e919061170e565b60405180910390f35b34801561036357600080fd5b5061037e60048036038101906103799190611395565b6109fc565b60405161038b919061170e565b60405180910390f35b3480156103a057600080fd5b506103bb60048036038101906103b6919061127b565b610a1f565b6040516103c89190611917565b60405180910390f35b6060600680546103e090611afa565b80601f016020809104026020016040519081016040528092919081815260200182805461040c90611afa565b80156104595780601f1061042e57610100808354040283529160200191610459565b820191906000526020600020905b81548152906001019060200180831161043c57829003601f168201915b5050505050905090565b60008061046e610aa6565b905061047b818585610b57565b600191505092915050565b606060006040518060600160405280600260008a73ffffffffffffffffffffffffffffffffffffffff1673ffffffffffffffffffffffffffffffffffffffff1681526020019081526020016000205481526020018873ffffffffffffffffffffffffffffffffffffffff1681526020018781525090506105098782878787610d22565b610548576040517f08c379a000000000000000000000000000000000000000000000000000000000815260040161053f90611897565b60405180910390fd5b6000803073ffffffffffffffffffffffffffffffffffffffff16888a604051602001610575929190611671565b604051602081830303815290604052604051610591919061165a565b6000604051808303816000865af19150503d80600081146105ce576040519150601f19603f3d011682016040523d82523d6000602084013e6105d3565b606091505b509150915081610618576040517f08c379a000000000000000000000000000000000000000000000000000000000815260040161060f90611857565b60405180910390fd5b61066b6001600260008c73ffffffffffffffffffffffffffffffffffffffff1673ffffffffffffffffffffffffffffffffffffffff16815260200190815260200160002054610dbc90919063ffffffff16565b600260008b73ffffffffffffffffffffffffffffffffffffffff1673ffffffffffffffffffffffffffffffffffffffff168152602001908152602001600020819055507f5845892132946850460bff5a0083f71031bc5bf9aadcd40f1de79423eac9b10b89338a6040516106e1939291906116d0565b60405180910390a180935050505095945050505050565b6000600554905090565b60008061070d610aa6565b905061071a858285610dd2565b610725858585610e5e565b60019150509392505050565b6000600260008373ffffffffffffffffffffffffffffffffffffffff1673ffffffffffffffffffffffffffffffffffffffff168152602001908152602001600020549050919050565b60006012905090565b60008061078e610aa6565b9050610822818585600460008673ffffffffffffffffffffffffffffffffffffffff1673ffffffffffffffffffffffffffffffffffffffff16815260200190815260200160002060008973ffffffffffffffffffffffffffffffffffffffff1673ffffffffffffffffffffffffffffffffffffffff1681526020019081526020016000205461081d91906119f1565b610b57565b600191505092915050565b6000600154905090565b6000600360008373ffffffffffffffffffffffffffffffffffffffff1673ffffffffffffffffffffffffffffffffffffffff168152602001908152602001600020549050919050565b60606007805461088f90611afa565b80601f01602080910402602001604051908101604052809291908181526020018280546108bb90611afa565b80156109085780601f106108dd57610100808354040283529160200191610908565b820191906000526020600020905b8154815290600101906020018083116108eb57829003601f168201915b5050505050905090565b60008061091d610aa6565b90506000600460008373ffffffffffffffffffffffffffffffffffffffff1673ffffffffffffffffffffffffffffffffffffffff16815260200190815260200160002060008673ffffffffffffffffffffffffffffffffffffffff1673ffffffffffffffffffffffffffffffffffffffff168152602001908152602001600020549050838110156109e3576040517f08c379a00000000000000000000000000000000000000000000000000000000081526004016109da906118f7565b60405180910390fd5b6109f08286868403610b57565b60019250505092915050565b600080610a07610aa6565b9050610a14818585610e5e565b600191505092915050565b6000600460008473ffffffffffffffffffffffffffffffffffffffff1673ffffffffffffffffffffffffffffffffffffffff16815260200190815260200160002060008373ffffffffffffffffffffffffffffffffffffffff1673ffffffffffffffffffffffffffffffffffffffff16815260200190815260200160002054905092915050565b60003073ffffffffffffffffffffffffffffffffffffffff163373ffffffffffffffffffffffffffffffffffffffff161415610b5057600080368080601f016020809104026020016040519081016040528093929190818152602001838380828437600081840152601f19601f820116905080830192505050505050509050600080369050905073ffffffffffffffffffffffffffffffffffffffff818301511692505050610b54565b3390505b90565b600073ffffffffffffffffffffffffffffffffffffffff168373ffffffffffffffffffffffffffffffffffffffff161415610bc7576040517f08c379a0000000000000000000000000000000000000000000000000000000008152600401610bbe906118d7565b60405180910390fd5b600073ffffffffffffffffffffffffffffffffffffffff168273ffffffffffffffffffffffffffffffffffffffff161415610c37576040517f08c379a0000000000000000000000000000000000000000000000000000000008152600401610c2e90611817565b60405180910390fd5b80600460008573ffffffffffffffffffffffffffffffffffffffff1673ffffffffffffffffffffffffffffffffffffffff16815260200190815260200160002060008473ffffffffffffffffffffffffffffffffffffffff1673ffffffffffffffffffffffffffffffffffffffff168152602001908152602001600020819055508173ffffffffffffffffffffffffffffffffffffffff168373ffffffffffffffffffffffffffffffffffffffff167f8c5be1e5ebec7d5bd14f71427d1e84f3dd0314c0f7b2291e5b200ac8c7c3b92583604051610d159190611917565b60405180910390a3505050565b60006001610d37610d32876110e2565b61114a565b83868660405160008152602001604052604051610d57949392919061176e565b6020604051602081039080840390855afa158015610d79573d6000803e3d6000fd5b5050506020604051035173ffffffffffffffffffffffffffffffffffffffff168673ffffffffffffffffffffffffffffffffffffffff1614905095945050505050565b60008183610dca91906119f1565b905092915050565b6000610dde8484610a1f565b90507fffffffffffffffffffffffffffffffffffffffffffffffffffffffffffffffff8114610e585781811015610e4a576040517f08c379a0000000000000000000000000000000000000000000000000000000008152600401610e4190611837565b60405180910390fd5b610e578484848403610b57565b5b50505050565b600073ffffffffffffffffffffffffffffffffffffffff168373ffffffffffffffffffffffffffffffffffffffff161415610ece576040517f08c379a0000000000000000000000000000000000000000000000000000000008152600401610ec5906118b7565b60405180910390fd5b600073ffffffffffffffffffffffffffffffffffffffff168273ffffffffffffffffffffffffffffffffffffffff161415610f3e576040517f08c379a0000000000000000000000000000000000000000000000000000000008152600401610f35906117f7565b60405180910390fd5b610f49838383611183565b6000600360008573ffffffffffffffffffffffffffffffffffffffff1673ffffffffffffffffffffffffffffffffffffffff16815260200190815260200160002054905081811015610fd0576040517f08c379a0000000000000000000000000000000000000000000000000000000008152600401610fc790611877565b60405180910390fd5b818103600360008673ffffffffffffffffffffffffffffffffffffffff1673ffffffffffffffffffffffffffffffffffffffff1681526020019081526020016000208190555081600360008573ffffffffffffffffffffffffffffffffffffffff1673ffffffffffffffffffffffffffffffffffffffff168152602001908152602001600020600082825461106591906119f1565b925050819055508273ffffffffffffffffffffffffffffffffffffffff168473ffffffffffffffffffffffffffffffffffffffff167fddf252ad1be2c89b69c2b068fc378daa952ba7f163c4a11628f55a4df523b3ef846040516110c99190611917565b60405180910390a36110dc848484611188565b50505050565b6000604051806080016040528060438152602001611f3760439139805190602001208260000151836020015184604001518051906020012060405160200161112d9493929190611729565b604051602081830303815290604052805190602001209050919050565b600061115461118d565b82604051602001611166929190611699565b604051602081830303815290604052805190602001209050919050565b505050565b505050565b60008054905090565b60006111a96111a484611972565b61194d565b9050828152602081018484840111156111c157600080fd5b6111cc848285611ab8565b509392505050565b6000813590506111e381611eda565b92915050565b6000813590506111f881611ef1565b92915050565b600082601f83011261120f57600080fd5b813561121f848260208601611196565b91505092915050565b60008135905061123781611f08565b92915050565b60008135905061124c81611f1f565b92915050565b60006020828403121561126457600080fd5b6000611272848285016111d4565b91505092915050565b6000806040838503121561128e57600080fd5b600061129c858286016111d4565b92505060206112ad858286016111d4565b9150509250929050565b6000806000606084860312156112cc57600080fd5b60006112da868287016111d4565b93505060206112eb868287016111d4565b92505060406112fc86828701611228565b9150509250925092565b600080600080600060a0868803121561131e57600080fd5b600061132c888289016111d4565b955050602086013567ffffffffffffffff81111561134957600080fd5b611355888289016111fe565b9450506040611366888289016111e9565b9350506060611377888289016111e9565b92505060806113888882890161123d565b9150509295509295909350565b600080604083850312156113a857600080fd5b60006113b6858286016111d4565b92505060206113c785828601611228565b9150509250929050565b6113da81611a59565b82525050565b6113e981611a47565b82525050565b6114006113fb82611a47565b611b5d565b82525050565b61140f81611a6b565b82525050565b61141e81611a77565b82525050565b61143561143082611a77565b611b6f565b82525050565b6000611446826119a3565b61145081856119b9565b9350611460818560208601611ac7565b61146981611c18565b840191505092915050565b600061147f826119a3565b61148981856119ca565b9350611499818560208601611ac7565b80840191505092915050565b60006114b0826119ae565b6114ba81856119d5565b93506114ca818560208601611ac7565b6114d381611c18565b840191505092915050565b60006114eb6023836119d5565b91506114f682611c36565b604082019050919050565b600061150e6022836119d5565b915061151982611c85565b604082019050919050565b60006115316002836119e6565b915061153c82611cd4565b600282019050919050565b6000611554601d836119d5565b915061155f82611cfd565b602082019050919050565b6000611577601d836119d5565b915061158282611d26565b602082019050919050565b600061159a6026836119d5565b91506115a582611d4f565b604082019050919050565b60006115bd6021836119d5565b91506115c882611d9e565b604082019050919050565b60006115e06025836119d5565b91506115eb82611ded565b604082019050919050565b60006116036024836119d5565b915061160e82611e3c565b604082019050919050565b60006116266025836119d5565b915061163182611e8b565b604082019050919050565b61164581611aa1565b82525050565b61165481611aab565b82525050565b60006116668284611474565b915081905092915050565b600061167d8285611474565b915061168982846113ef565b6014820191508190509392505050565b60006116a482611524565b91506116b08285611424565b6020820191506116c08284611424565b6020820191508190509392505050565b60006060820190506116e560008301866113e0565b6116f260208301856113d1565b8181036040830152611704818461143b565b9050949350505050565b60006020820190506117236000830184611406565b92915050565b600060808201905061173e6000830187611415565b61174b602083018661163c565b61175860408301856113e0565b6117656060830184611415565b95945050505050565b60006080820190506117836000830187611415565b611790602083018661164b565b61179d6040830185611415565b6117aa6060830184611415565b95945050505050565b600060208201905081810360008301526117cd818461143b565b905092915050565b600060208201905081810360008301526117ef81846114a5565b905092915050565b60006020820190508181036000830152611810816114de565b9050919050565b6000602082019050818103600083015261183081611501565b9050919050565b6000602082019050818103600083015261185081611547565b9050919050565b600060208201905081810360008301526118708161156a565b9050919050565b600060208201905081810360008301526118908161158d565b9050919050565b600060208201905081810360008301526118b0816115b0565b9050919050565b600060208201905081810360008301526118d0816115d3565b9050919050565b600060208201905081810360008301526118f0816115f6565b9050919050565b6000602082019050818103600083015261191081611619565b9050919050565b600060208201905061192c600083018461163c565b92915050565b6000602082019050611947600083018461164b565b92915050565b6000611957611968565b90506119638282611b2c565b919050565b6000604051905090565b600067ffffffffffffffff82111561198d5761198c611be9565b5b61199682611c18565b9050602081019050919050565b600081519050919050565b600081519050919050565b600082825260208201905092915050565b600081905092915050565b600082825260208201905092915050565b600081905092915050565b60006119fc82611aa1565b9150611a0783611aa1565b9250827fffffffffffffffffffffffffffffffffffffffffffffffffffffffffffffffff03821115611a3c57611a3b611b8b565b5b828201905092915050565b6000611a5282611a81565b9050919050565b6000611a6482611a81565b9050919050565b60008115159050919050565b6000819050919050565b600073ffffffffffffffffffffffffffffffffffffffff82169050919050565b6000819050919050565b600060ff82169050919050565b82818337600083830152505050565b60005b83811015611ae5578082015181840152602081019050611aca565b83811115611af4576000848401525b50505050565b60006002820490506001821680611b1257607f821691505b60208210811415611b2657611b25611bba565b5b50919050565b611b3582611c18565b810181811067ffffffffffffffff82111715611b5457611b53611be9565b5b80604052505050565b6000611b6882611b79565b9050919050565b6000819050919050565b6000611b8482611c29565b9050919050565b7f4e487b7100000000000000000000000000000000000000000000000000000000600052601160045260246000fd5b7f4e487b7100000000000000000000000000000000000000000000000000000000600052602260045260246000fd5b7f4e487b7100000000000000000000000000000000000000000000000000000000600052604160045260246000fd5b6000601f19601f8301169050919050565b60008160601b9050919050565b7f45524332303a207472616e7366657220746f20746865207a65726f206164647260008201527f6573730000000000000000000000000000000000000000000000000000000000602082015250565b7f45524332303a20617070726f766520746f20746865207a65726f20616464726560008201527f7373000000000000000000000000000000000000000000000000000000000000602082015250565b7f1901000000000000000000000000000000000000000000000000000000000000600082015250565b7f45524332303a20696e73756666696369656e7420616c6c6f77616e6365000000600082015250565b7f46756e6374696f6e2063616c6c206e6f74207375636365737366756c6c000000600082015250565b7f45524332303a207472616e7366657220616d6f756e742065786365656473206260008201527f616c616e63650000000000000000000000000000000000000000000000000000602082015250565b7f5369676e657220616e64207369676e617475726520646f206e6f74206d61746360008201527f6800000000000000000000000000000000000000000000000000000000000000602082015250565b7f45524332303a207472616e736665722066726f6d20746865207a65726f20616460008201527f6472657373000000000000000000000000000000000000000000000000000000602082015250565b7f45524332303a20617070726f76652066726f6d20746865207a65726f2061646460008201527f7265737300000000000000000000000000000000000000000000000000000000602082015250565b7f45524332303a2064656372656173656420616c6c6f77616e63652062656c6f7760008201527f207a65726f000000000000000000000000000000000000000000000000000000602082015250565b611ee381611a47565b8114611eee57600080fd5b50565b611efa81611a77565b8114611f0557600080fd5b50565b611f1181611aa1565b8114611f1c57600080fd5b50565b611f2881611aab565b8114611f3357600080fd5b5056fe4d6574615472616e73616374696f6e2875696e74323536206e6f6e63652c616464726573732066726f6d2c62797465732066756e6374696f6e5369676e617475726529a26469706673582212203649f56175591fb74530913a3a944ad00b64cbd7442b5b0192d8bf9efb99e58064736f6c63430008040033454950373132446f6d61696e28737472696e67206e616d652c737472696e672076657273696f6e2c75696e7432353620636861696e49642c6164647265737320766572696679696e67436f6e747261637429",
  "linkReferences": {},
  "deployedLinkReferences": {}
}