{
  "_format": "hh-sol-artifact-1",
  "contractName": "SimpleStorage",
  "sourceName": "contracts/SimpleStorage.sol",
  "abi": [
    {
      "inputs": [],
      "stateMutability": "nonpayable",
      "type": "constructor"
    },
    {
      "anonymous": false,
      "inputs": [
        {
          "indexed": false,
          "internalType": "address",
          "name": "userAddress",
          "type": "address"
        },
        {
          "indexed": false,
          "internalType": "address payable",
          "name": "relayerAddress",
          "type": "address"
        },
        {
          "indexed": false,
          "internalType": "bytes",
          "name": "functionSignature",
          "type": "bytes"
        }
      ],
      "name": "MetaTransactionExecuted",
      "type": "event"
    },
    {
      "inputs": [
        {
          "internalType": "address",
          "name": "userAddress",
          "type": "address"
        },
        {
          "internalType": "bytes",
          "name": "functionSignature",
          "type": "bytes"
        },
        {
          "internalType": "bytes32",
          "name": "sigR",
          "type": "bytes32"
        },
        {
          "internalType": "bytes32",
          "name": "sigS",
          "type": "bytes32"
        },
        {
          "internalType": "uint8",
          "name": "sigV",
          "type": "uint8"
        }
      ],
      "name": "executeMetaTransaction",
      "outputs": [
        {
          "internalType": "bytes",
          "name": "",
          "type": "bytes"
        }
      ],
      "stateMutability": "payable",
      "type": "function"
    },
    {
      "inputs": [],
      "name": "getChainID",
      "outputs": [
        {
          "internalType": "uint256",
          "name": "id",
          "type": "uint256"
        }
      ],
      "stateMutability": "view",
      "type": "function"
    },
    {
      "inputs": [
        {
          "internalType": "address",
          "name": "user",
          "type": "address"
        }
      ],
      "name": "getNonce",
      "outputs": [
        {
          "internalType": "uint256",
          "name": "nonce",
          "type": "uint256"
        }
      ],
      "stateMutability": "view",
      "type": "function"
    },
    {
      "inputs": [],
      "name": "getStorage",
      "outputs": [
        {
          "internalType": "string",
          "name": "",
          "type": "string"
        }
      ],
      "stateMutability": "view",
      "type": "function"
    },
    {
      "inputs": [],
      "name": "owner",
      "outputs": [
        {
          "internalType": "address",
          "name": "",
          "type": "address"
        }
      ],
      "stateMutability": "view",
      "type": "function"
    },
    {
      "inputs": [
        {
          "internalType": "string",
          "name": "_newData",
          "type": "string"
        }
      ],
      "name": "setStorage",
      "outputs": [],
      "stateMutability": "nonpayable",
      "type": "function"
    }
  ],
  "bytecode": "0x60806040523480156200001157600080fd5b506040518060400160405280600d81526020017f53696d706c6553746f72616765000000000000000000000000000000000000008152506040518060400160405280600181526020017f3100000000000000000000000000000000000000000000000000000000000000815250602a8282828060018190555060405180608001604052806052815260200162001497605291398051906020012083805190602001208380519060200120620000cb6200019960201b60201c565b30604051602001620000e295949392919062000286565b604051602081830303815290604052805190602001206000819055505050505050506040518060400160405280601581526020017f48656c6c6f204d6574617472616e73616374696f6e00000000000000000000008152506003908051906020019062000151929190620001a3565b5033600460006101000a81548173ffffffffffffffffffffffffffffffffffffffff021916908373ffffffffffffffffffffffffffffffffffffffff16021790555062000390565b6000600154905090565b828054620001b1906200032b565b90600052602060002090601f016020900481019282620001d5576000855562000221565b82601f10620001f057805160ff191683800117855562000221565b8280016001018555821562000221579182015b828111156200022057825182559160200191906001019062000203565b5b50905062000230919062000234565b5090565b5b808211156200024f57600081600090555060010162000235565b5090565b6200025e81620002e3565b82525050565b6200026f81620002f7565b82525050565b620002808162000321565b82525050565b600060a0820190506200029d600083018862000264565b620002ac602083018762000264565b620002bb604083018662000264565b620002ca606083018562000275565b620002d9608083018462000253565b9695505050505050565b6000620002f08262000301565b9050919050565b6000819050919050565b600073ffffffffffffffffffffffffffffffffffffffff82169050919050565b6000819050919050565b600060028204905060018216806200034457607f821691505b602082108114156200035b576200035a62000361565b5b50919050565b7f4e487b7100000000000000000000000000000000000000000000000000000000600052602260045260246000fd5b6110f780620003a06000396000f3fe6080604052600436106100555760003560e01c80630c53c51c1461005a5780632d0335ab1461008a5780633408f73a146100c7578063564b81ef146100f25780638da5cb5b1461011d578063a57b0b0b14610148575b600080fd5b610074600480360381019061006f919061083d565b610171565b6040516100819190610beb565b60405180910390f35b34801561009657600080fd5b506100b160048036038101906100ac9190610814565b6103e3565b6040516100be9190610c6f565b60405180910390f35b3480156100d357600080fd5b506100dc61042c565b6040516100e99190610c0d565b60405180910390f35b3480156100fe57600080fd5b506101076104be565b6040516101149190610c6f565b60405180910390f35b34801561012957600080fd5b506101326104c8565b60405161013f9190610b08565b60405180910390f35b34801561015457600080fd5b5061016f600480360381019061016a91906108cc565b6104ee565b005b606060006040518060600160405280600260008a73ffffffffffffffffffffffffffffffffffffffff1673ffffffffffffffffffffffffffffffffffffffff1681526020019081526020016000205481526020018873ffffffffffffffffffffffffffffffffffffffff1681526020018781525090506101f48782878787610508565b610233576040517f08c379a000000000000000000000000000000000000000000000000000000000815260040161022a90610c4f565b60405180910390fd5b6000803073ffffffffffffffffffffffffffffffffffffffff16888a604051602001610260929190610aa9565b60405160208183030381529060405260405161027c9190610a92565b6000604051808303816000865af19150503d80600081146102b9576040519150601f19603f3d011682016040523d82523d6000602084013e6102be565b606091505b509150915081610303576040517f08c379a00000000000000000000000000000000000000000000000000000000081526004016102fa90610c2f565b60405180910390fd5b6103566001600260008c73ffffffffffffffffffffffffffffffffffffffff1673ffffffffffffffffffffffffffffffffffffffff168152602001908152602001600020546105a290919063ffffffff16565b600260008b73ffffffffffffffffffffffffffffffffffffffff1673ffffffffffffffffffffffffffffffffffffffff168152602001908152602001600020819055507f5845892132946850460bff5a0083f71031bc5bf9aadcd40f1de79423eac9b10b89338a6040516103cc93929190610b23565b60405180910390a180935050505095945050505050565b6000600260008373ffffffffffffffffffffffffffffffffffffffff1673ffffffffffffffffffffffffffffffffffffffff168152602001908152602001600020549050919050565b60606003805461043b90610e5c565b80601f016020809104026020016040519081016040528092919081815260200182805461046790610e5c565b80156104b45780601f10610489576101008083540402835291602001916104b4565b820191906000526020600020905b81548152906001019060200180831161049757829003601f168201915b5050505050905090565b6000600154905090565b600460009054906101000a900473ffffffffffffffffffffffffffffffffffffffff1681565b8060039080519060200190610504929190610662565b5050565b6000600161051d610518876105b8565b610620565b8386866040516000815260200160405260405161053d9493929190610ba6565b6020604051602081039080840390855afa15801561055f573d6000803e3d6000fd5b5050506020604051035173ffffffffffffffffffffffffffffffffffffffff168673ffffffffffffffffffffffffffffffffffffffff1614905095945050505050565b600081836105b09190610d5f565b905092915050565b600060405180608001604052806043815260200161107f6043913980519060200120826000015183602001518460400151805190602001206040516020016106039493929190610b61565b604051602081830303815290604052805190602001209050919050565b600061062a610659565b8260405160200161063c929190610ad1565b604051602081830303815290604052805190602001209050919050565b60008054905090565b82805461066e90610e5c565b90600052602060002090601f01602090048101928261069057600085556106d7565b82601f106106a957805160ff19168380011785556106d7565b828001600101855582156106d7579182015b828111156106d65782518255916020019190600101906106bb565b5b5090506106e491906106e8565b5090565b5b808211156107015760008160009055506001016106e9565b5090565b600061071861071384610caf565b610c8a565b90508281526020810184848401111561073057600080fd5b61073b848285610e1a565b509392505050565b600061075661075184610ce0565b610c8a565b90508281526020810184848401111561076e57600080fd5b610779848285610e1a565b509392505050565b60008135905061079081611039565b92915050565b6000813590506107a581611050565b92915050565b600082601f8301126107bc57600080fd5b81356107cc848260208601610705565b91505092915050565b600082601f8301126107e657600080fd5b81356107f6848260208601610743565b91505092915050565b60008135905061080e81611067565b92915050565b60006020828403121561082657600080fd5b600061083484828501610781565b91505092915050565b600080600080600060a0868803121561085557600080fd5b600061086388828901610781565b955050602086013567ffffffffffffffff81111561088057600080fd5b61088c888289016107ab565b945050604061089d88828901610796565b93505060606108ae88828901610796565b92505060806108bf888289016107ff565b9150509295509295909350565b6000602082840312156108de57600080fd5b600082013567ffffffffffffffff8111156108f857600080fd5b610904848285016107d5565b91505092915050565b61091681610dc7565b82525050565b61092581610db5565b82525050565b61093c61093782610db5565b610ebf565b82525050565b61094b81610dd9565b82525050565b61096261095d82610dd9565b610ed1565b82525050565b600061097382610d11565b61097d8185610d27565b935061098d818560208601610e29565b61099681610f7a565b840191505092915050565b60006109ac82610d11565b6109b68185610d38565b93506109c6818560208601610e29565b80840191505092915050565b60006109dd82610d1c565b6109e78185610d43565b93506109f7818560208601610e29565b610a0081610f7a565b840191505092915050565b6000610a18600283610d54565b9150610a2382610f98565b600282019050919050565b6000610a3b601d83610d43565b9150610a4682610fc1565b602082019050919050565b6000610a5e602183610d43565b9150610a6982610fea565b604082019050919050565b610a7d81610e03565b82525050565b610a8c81610e0d565b82525050565b6000610a9e82846109a1565b915081905092915050565b6000610ab582856109a1565b9150610ac1828461092b565b6014820191508190509392505050565b6000610adc82610a0b565b9150610ae88285610951565b602082019150610af88284610951565b6020820191508190509392505050565b6000602082019050610b1d600083018461091c565b92915050565b6000606082019050610b38600083018661091c565b610b45602083018561090d565b8181036040830152610b578184610968565b9050949350505050565b6000608082019050610b766000830187610942565b610b836020830186610a74565b610b90604083018561091c565b610b9d6060830184610942565b95945050505050565b6000608082019050610bbb6000830187610942565b610bc86020830186610a83565b610bd56040830185610942565b610be26060830184610942565b95945050505050565b60006020820190508181036000830152610c058184610968565b905092915050565b60006020820190508181036000830152610c2781846109d2565b905092915050565b60006020820190508181036000830152610c4881610a2e565b9050919050565b60006020820190508181036000830152610c6881610a51565b9050919050565b6000602082019050610c846000830184610a74565b92915050565b6000610c94610ca5565b9050610ca08282610e8e565b919050565b6000604051905090565b600067ffffffffffffffff821115610cca57610cc9610f4b565b5b610cd382610f7a565b9050602081019050919050565b600067ffffffffffffffff821115610cfb57610cfa610f4b565b5b610d0482610f7a565b9050602081019050919050565b600081519050919050565b600081519050919050565b600082825260208201905092915050565b600081905092915050565b600082825260208201905092915050565b600081905092915050565b6000610d6a82610e03565b9150610d7583610e03565b9250827fffffffffffffffffffffffffffffffffffffffffffffffffffffffffffffffff03821115610daa57610da9610eed565b5b828201905092915050565b6000610dc082610de3565b9050919050565b6000610dd282610de3565b9050919050565b6000819050919050565b600073ffffffffffffffffffffffffffffffffffffffff82169050919050565b6000819050919050565b600060ff82169050919050565b82818337600083830152505050565b60005b83811015610e47578082015181840152602081019050610e2c565b83811115610e56576000848401525b50505050565b60006002820490506001821680610e7457607f821691505b60208210811415610e8857610e87610f1c565b5b50919050565b610e9782610f7a565b810181811067ffffffffffffffff82111715610eb657610eb5610f4b565b5b80604052505050565b6000610eca82610edb565b9050919050565b6000819050919050565b6000610ee682610f8b565b9050919050565b7f4e487b7100000000000000000000000000000000000000000000000000000000600052601160045260246000fd5b7f4e487b7100000000000000000000000000000000000000000000000000000000600052602260045260246000fd5b7f4e487b7100000000000000000000000000000000000000000000000000000000600052604160045260246000fd5b6000601f19601f8301169050919050565b60008160601b9050919050565b7f1901000000000000000000000000000000000000000000000000000000000000600082015250565b7f46756e6374696f6e2063616c6c206e6f74207375636365737366756c6c000000600082015250565b7f5369676e657220616e64207369676e617475726520646f206e6f74206d61746360008201527f6800000000000000000000000000000000000000000000000000000000000000602082015250565b61104281610db5565b811461104d57600080fd5b50565b61105981610dd9565b811461106457600080fd5b50565b61107081610e0d565b811461107b57600080fd5b5056fe4d6574615472616e73616374696f6e2875696e74323536206e6f6e63652c616464726573732066726f6d2c62797465732066756e6374696f6e5369676e617475726529a26469706673582212207d80e02056fe30ea7c57866cb3b9d87df4e5844efa89ea607d3e061eeb190e7264736f6c63430008040033454950373132446f6d61696e28737472696e67206e616d652c737472696e672076657273696f6e2c75696e7432353620636861696e49642c6164647265737320766572696679696e67436f6e747261637429",
  "linkReferences": {},
  "deployedLinkReferences": {}
}