{
  "_format": "hh-sol-artifact-1",
  "contractName": "EIP712MetaTransaction",
  "sourceName": "contracts/EIP712/EIP712MetaTransaction.sol",
  "abi": [
    {
      "inputs": [
        {
          "internalType": "string",
          "name": "name",
          "type": "string"
        },
        {
          "internalType": "string",
          "name": "version",
          "type": "string"
        },
        {
          "internalType": "uint256",
          "name": "chainid",
          "type": "uint256"
        }
      ],
      "stateMutability": "nonpayable",
      "type": "constructor"
    },
    {
      "anonymous": false,
      "inputs": [
        {
          "indexed": false,
          "internalType": "address",
          "name": "userAddress",
          "type": "address"
        },
        {
          "indexed": false,
          "internalType": "address payable",
          "name": "relayerAddress",
          "type": "address"
        },
        {
          "indexed": false,
          "internalType": "bytes",
          "name": "functionSignature",
          "type": "bytes"
        }
      ],
      "name": "MetaTransactionExecuted",
      "type": "event"
    },
    {
      "inputs": [
        {
          "internalType": "address",
          "name": "userAddress",
          "type": "address"
        },
        {
          "internalType": "bytes",
          "name": "functionSignature",
          "type": "bytes"
        },
        {
          "internalType": "bytes32",
          "name": "sigR",
          "type": "bytes32"
        },
        {
          "internalType": "bytes32",
          "name": "sigS",
          "type": "bytes32"
        },
        {
          "internalType": "uint8",
          "name": "sigV",
          "type": "uint8"
        }
      ],
      "name": "executeMetaTransaction",
      "outputs": [
        {
          "internalType": "bytes",
          "name": "",
          "type": "bytes"
        }
      ],
      "stateMutability": "payable",
      "type": "function"
    },
    {
      "inputs": [],
      "name": "getChainID",
      "outputs": [
        {
          "internalType": "uint256",
          "name": "id",
          "type": "uint256"
        }
      ],
      "stateMutability": "view",
      "type": "function"
    },
    {
      "inputs": [
        {
          "internalType": "address",
          "name": "user",
          "type": "address"
        }
      ],
      "name": "getNonce",
      "outputs": [
        {
          "internalType": "uint256",
          "name": "nonce",
          "type": "uint256"
        }
      ],
      "stateMutability": "view",
      "type": "function"
    }
  ],
  "bytecode": "0x60806040523480156200001157600080fd5b506040516200116138038062001161833981810160405281019062000037919062000154565b828282806001819055506040518060800160405280605281526020016200110f60529139805190602001208380519060200120838051906020012062000082620000c160201b60201c565b30604051602001620000999594939291906200020f565b60405160208183030381529060405280519060200120600081905550505050505050620003d9565b6000600154905090565b6000620000e2620000dc8462000295565b6200026c565b905082815260208101848484011115620000fb57600080fd5b6200010884828562000313565b509392505050565b600082601f8301126200012257600080fd5b815162000134848260208601620000cb565b91505092915050565b6000815190506200014e81620003bf565b92915050565b6000806000606084860312156200016a57600080fd5b600084015167ffffffffffffffff8111156200018557600080fd5b620001938682870162000110565b935050602084015167ffffffffffffffff811115620001b157600080fd5b620001bf8682870162000110565b9250506040620001d2868287016200013d565b9150509250925092565b620001e781620002cb565b82525050565b620001f881620002df565b82525050565b620002098162000309565b82525050565b600060a082019050620002266000830188620001ed565b620002356020830187620001ed565b620002446040830186620001ed565b620002536060830185620001fe565b620002626080830184620001dc565b9695505050505050565b6000620002786200028b565b905062000286828262000349565b919050565b6000604051905090565b600067ffffffffffffffff821115620002b357620002b26200037f565b5b620002be82620003ae565b9050602081019050919050565b6000620002d882620002e9565b9050919050565b6000819050919050565b600073ffffffffffffffffffffffffffffffffffffffff82169050919050565b6000819050919050565b60005b838110156200033357808201518184015260208101905062000316565b8381111562000343576000848401525b50505050565b6200035482620003ae565b810181811067ffffffffffffffff821117156200037657620003756200037f565b5b80604052505050565b7f4e487b7100000000000000000000000000000000000000000000000000000000600052604160045260246000fd5b6000601f19601f8301169050919050565b620003ca8162000309565b8114620003d657600080fd5b50565b610d2680620003e96000396000f3fe6080604052600436106100345760003560e01c80630c53c51c146100395780632d0335ab14610069578063564b81ef146100a6575b600080fd5b610053600480360381019061004e91906105c0565b6100d1565b60405161006091906108d9565b60405180910390f35b34801561007557600080fd5b50610090600480360381019061008b9190610597565b610343565b60405161009d919061093b565b60405180910390f35b3480156100b257600080fd5b506100bb61038c565b6040516100c8919061093b565b60405180910390f35b606060006040518060600160405280600260008a73ffffffffffffffffffffffffffffffffffffffff1673ffffffffffffffffffffffffffffffffffffffff1681526020019081526020016000205481526020018873ffffffffffffffffffffffffffffffffffffffff1681526020018781525090506101548782878787610396565b610193576040517f08c379a000000000000000000000000000000000000000000000000000000000815260040161018a9061091b565b60405180910390fd5b6000803073ffffffffffffffffffffffffffffffffffffffff16888a6040516020016101c09291906107b2565b6040516020818303038152906040526040516101dc919061079b565b6000604051808303816000865af19150503d8060008114610219576040519150601f19603f3d011682016040523d82523d6000602084013e61021e565b606091505b509150915081610263576040517f08c379a000000000000000000000000000000000000000000000000000000000815260040161025a906108fb565b60405180910390fd5b6102b66001600260008c73ffffffffffffffffffffffffffffffffffffffff1673ffffffffffffffffffffffffffffffffffffffff1681526020019081526020016000205461043090919063ffffffff16565b600260008b73ffffffffffffffffffffffffffffffffffffffff1673ffffffffffffffffffffffffffffffffffffffff168152602001908152602001600020819055507f5845892132946850460bff5a0083f71031bc5bf9aadcd40f1de79423eac9b10b89338a60405161032c93929190610811565b60405180910390a180935050505095945050505050565b6000600260008373ffffffffffffffffffffffffffffffffffffffff1673ffffffffffffffffffffffffffffffffffffffff168152602001908152602001600020549050919050565b6000600154905090565b600060016103ab6103a687610446565b6104ae565b838686604051600081526020016040526040516103cb9493929190610894565b6020604051602081039080840390855afa1580156103ed573d6000803e3d6000fd5b5050506020604051035173ffffffffffffffffffffffffffffffffffffffff168673ffffffffffffffffffffffffffffffffffffffff1614905095945050505050565b6000818361043e91906109ef565b905092915050565b6000604051806080016040528060438152602001610cae604391398051906020012082600001518360200151846040015180519060200120604051602001610491949392919061084f565b604051602081830303815290604052805190602001209050919050565b60006104b86104e7565b826040516020016104ca9291906107da565b604051602081830303815290604052805190602001209050919050565b60008054905090565b60006105036104fe8461097b565b610956565b90508281526020810184848401111561051b57600080fd5b610526848285610aaa565b509392505050565b60008135905061053d81610c68565b92915050565b60008135905061055281610c7f565b92915050565b600082601f83011261056957600080fd5b81356105798482602086016104f0565b91505092915050565b60008135905061059181610c96565b92915050565b6000602082840312156105a957600080fd5b60006105b78482850161052e565b91505092915050565b600080600080600060a086880312156105d857600080fd5b60006105e68882890161052e565b955050602086013567ffffffffffffffff81111561060357600080fd5b61060f88828901610558565b945050604061062088828901610543565b935050606061063188828901610543565b925050608061064288828901610582565b9150509295509295909350565b61065881610a57565b82525050565b61066781610a45565b82525050565b61067e61067982610a45565b610b1d565b82525050565b61068d81610a69565b82525050565b6106a461069f82610a69565b610b2f565b82525050565b60006106b5826109ac565b6106bf81856109b7565b93506106cf818560208601610ab9565b6106d881610ba9565b840191505092915050565b60006106ee826109ac565b6106f881856109c8565b9350610708818560208601610ab9565b80840191505092915050565b60006107216002836109e4565b915061072c82610bc7565b600282019050919050565b6000610744601d836109d3565b915061074f82610bf0565b602082019050919050565b60006107676021836109d3565b915061077282610c19565b604082019050919050565b61078681610a93565b82525050565b61079581610a9d565b82525050565b60006107a782846106e3565b915081905092915050565b60006107be82856106e3565b91506107ca828461066d565b6014820191508190509392505050565b60006107e582610714565b91506107f18285610693565b6020820191506108018284610693565b6020820191508190509392505050565b6000606082019050610826600083018661065e565b610833602083018561064f565b818103604083015261084581846106aa565b9050949350505050565b60006080820190506108646000830187610684565b610871602083018661077d565b61087e604083018561065e565b61088b6060830184610684565b95945050505050565b60006080820190506108a96000830187610684565b6108b6602083018661078c565b6108c36040830185610684565b6108d06060830184610684565b95945050505050565b600060208201905081810360008301526108f381846106aa565b905092915050565b6000602082019050818103600083015261091481610737565b9050919050565b600060208201905081810360008301526109348161075a565b9050919050565b6000602082019050610950600083018461077d565b92915050565b6000610960610971565b905061096c8282610aec565b919050565b6000604051905090565b600067ffffffffffffffff82111561099657610995610b7a565b5b61099f82610ba9565b9050602081019050919050565b600081519050919050565b600082825260208201905092915050565b600081905092915050565b600082825260208201905092915050565b600081905092915050565b60006109fa82610a93565b9150610a0583610a93565b9250827fffffffffffffffffffffffffffffffffffffffffffffffffffffffffffffffff03821115610a3a57610a39610b4b565b5b828201905092915050565b6000610a5082610a73565b9050919050565b6000610a6282610a73565b9050919050565b6000819050919050565b600073ffffffffffffffffffffffffffffffffffffffff82169050919050565b6000819050919050565b600060ff82169050919050565b82818337600083830152505050565b60005b83811015610ad7578082015181840152602081019050610abc565b83811115610ae6576000848401525b50505050565b610af582610ba9565b810181811067ffffffffffffffff82111715610b1457610b13610b7a565b5b80604052505050565b6000610b2882610b39565b9050919050565b6000819050919050565b6000610b4482610bba565b9050919050565b7f4e487b7100000000000000000000000000000000000000000000000000000000600052601160045260246000fd5b7f4e487b7100000000000000000000000000000000000000000000000000000000600052604160045260246000fd5b6000601f19601f8301169050919050565b60008160601b9050919050565b7f1901000000000000000000000000000000000000000000000000000000000000600082015250565b7f46756e6374696f6e2063616c6c206e6f74207375636365737366756c6c000000600082015250565b7f5369676e657220616e64207369676e617475726520646f206e6f74206d61746360008201527f6800000000000000000000000000000000000000000000000000000000000000602082015250565b610c7181610a45565b8114610c7c57600080fd5b50565b610c8881610a69565b8114610c9357600080fd5b50565b610c9f81610a9d565b8114610caa57600080fd5b5056fe4d6574615472616e73616374696f6e2875696e74323536206e6f6e63652c616464726573732066726f6d2c62797465732066756e6374696f6e5369676e617475726529a26469706673582212200ac694e8c7edf6d0b3b5ad81c7b1892b6ac5c9d9be77adb731fe27a792a4104b64736f6c63430008040033454950373132446f6d61696e28737472696e67206e616d652c737472696e672076657273696f6e2c75696e7432353620636861696e49642c6164647265737320766572696679696e67436f6e747261637429",
  "linkReferences": {},
  "deployedLinkReferences": {}
}