{
  "_format": "hh-sol-artifact-1",
  "contractName": "EIP712Base",
  "sourceName": "contracts/EIP712/EIP712Base.sol",
  "abi": [
    {
      "inputs": [
        {
          "internalType": "string",
          "name": "name",
          "type": "string"
        },
        {
          "internalType": "string",
          "name": "version",
          "type": "string"
        },
        {
          "internalType": "uint256",
          "name": "chainid",
          "type": "uint256"
        }
      ],
      "stateMutability": "nonpayable",
      "type": "constructor"
    },
    {
      "inputs": [],
      "name": "getChainID",
      "outputs": [
        {
          "internalType": "uint256",
          "name": "id",
          "type": "uint256"
        }
      ],
      "stateMutability": "view",
      "type": "function"
    }
  ],
  "bytecode": "0x608060405234801561001057600080fd5b506040516104a43803806104a483398181016040528101906100329190610137565b806001819055506040518060800160405280605281526020016104526052913980519060200120838051906020012083805190602001206100776100b060201b60201c565b3060405160200161008c9594939291906101e3565b6040516020818303038152906040528051906020012060008190555050505061038d565b6000600154905090565b60006100cd6100c88461025b565b610236565b9050828152602081018484840111156100e557600080fd5b6100f08482856102d2565b509392505050565b600082601f83011261010957600080fd5b81516101198482602086016100ba565b91505092915050565b60008151905061013181610376565b92915050565b60008060006060848603121561014c57600080fd5b600084015167ffffffffffffffff81111561016657600080fd5b610172868287016100f8565b935050602084015167ffffffffffffffff81111561018f57600080fd5b61019b868287016100f8565b92505060406101ac86828701610122565b9150509250925092565b6101bf8161028c565b82525050565b6101ce8161029e565b82525050565b6101dd816102c8565b82525050565b600060a0820190506101f860008301886101c5565b61020560208301876101c5565b61021260408301866101c5565b61021f60608301856101d4565b61022c60808301846101b6565b9695505050505050565b6000610240610251565b905061024c8282610305565b919050565b6000604051905090565b600067ffffffffffffffff82111561027657610275610336565b5b61027f82610365565b9050602081019050919050565b6000610297826102a8565b9050919050565b6000819050919050565b600073ffffffffffffffffffffffffffffffffffffffff82169050919050565b6000819050919050565b60005b838110156102f05780820151818401526020810190506102d5565b838111156102ff576000848401525b50505050565b61030e82610365565b810181811067ffffffffffffffff8211171561032d5761032c610336565b5b80604052505050565b7f4e487b7100000000000000000000000000000000000000000000000000000000600052604160045260246000fd5b6000601f19601f8301169050919050565b61037f816102c8565b811461038a57600080fd5b50565b60b78061039b6000396000f3fe6080604052348015600f57600080fd5b506004361060285760003560e01c8063564b81ef14602d575b600080fd5b60336047565b604051603e9190605e565b60405180910390f35b6000600154905090565b6058816077565b82525050565b6000602082019050607160008301846051565b92915050565b600081905091905056fea26469706673582212208dc6ccb6a9029b7ad97b7f259c38fc6b34ae6e9790f54a68cbda4a03c6e68c5064736f6c63430008040033454950373132446f6d61696e28737472696e67206e616d652c737472696e672076657273696f6e2c75696e7432353620636861696e49642c6164647265737320766572696679696e67436f6e747261637429",
  "linkReferences": {},
  "deployedLinkReferences": {}
}