{
  "_format": "hh-sol-artifact-1",
  "contractName": "DMTToken",
  "sourceName": "contracts/DMTToken.sol",
  "abi": [
    {
      "inputs": [
        {
          "internalType": "string",
          "name": "name",
          "type": "string"
        },
        {
          "internalType": "string",
          "name": "symbol",
          "type": "string"
        }
      ],
      "stateMutability": "nonpayable",
      "type": "constructor"
    },
    {
      "anonymous": false,
      "inputs": [
        {
          "indexed": true,
          "internalType": "address",
          "name": "owner",
          "type": "address"
        },
        {
          "indexed": true,
          "internalType": "address",
          "name": "spender",
          "type": "address"
        },
        {
          "indexed": false,
          "internalType": "uint256",
          "name": "value",
          "type": "uint256"
        }
      ],
      "name": "Approval",
      "type": "event"
    },
    {
      "anonymous": false,
      "inputs": [
        {
          "indexed": false,
          "internalType": "address",
          "name": "userAddress",
          "type": "address"
        },
        {
          "indexed": false,
          "internalType": "address payable",
          "name": "relayerAddress",
          "type": "address"
        },
        {
          "indexed": false,
          "internalType": "bytes",
          "name": "functionSignature",
          "type": "bytes"
        }
      ],
      "name": "MetaTransactionExecuted",
      "type": "event"
    },
    {
      "anonymous": false,
      "inputs": [
        {
          "indexed": true,
          "internalType": "address",
          "name": "from",
          "type": "address"
        },
        {
          "indexed": true,
          "internalType": "address",
          "name": "to",
          "type": "address"
        },
        {
          "indexed": false,
          "internalType": "uint256",
          "name": "value",
          "type": "uint256"
        }
      ],
      "name": "Transfer",
      "type": "event"
    },
    {
      "inputs": [
        {
          "internalType": "address",
          "name": "owner",
          "type": "address"
        },
        {
          "internalType": "address",
          "name": "spender",
          "type": "address"
        }
      ],
      "name": "allowance",
      "outputs": [
        {
          "internalType": "uint256",
          "name": "",
          "type": "uint256"
        }
      ],
      "stateMutability": "view",
      "type": "function"
    },
    {
      "inputs": [
        {
          "internalType": "address",
          "name": "spender",
          "type": "address"
        },
        {
          "internalType": "uint256",
          "name": "amount",
          "type": "uint256"
        }
      ],
      "name": "approve",
      "outputs": [
        {
          "internalType": "bool",
          "name": "",
          "type": "bool"
        }
      ],
      "stateMutability": "nonpayable",
      "type": "function"
    },
    {
      "inputs": [
        {
          "internalType": "address",
          "name": "account",
          "type": "address"
        }
      ],
      "name": "balanceOf",
      "outputs": [
        {
          "internalType": "uint256",
          "name": "",
          "type": "uint256"
        }
      ],
      "stateMutability": "view",
      "type": "function"
    },
    {
      "inputs": [],
      "name": "decimals",
      "outputs": [
        {
          "internalType": "uint8",
          "name": "",
          "type": "uint8"
        }
      ],
      "stateMutability": "view",
      "type": "function"
    },
    {
      "inputs": [
        {
          "internalType": "address",
          "name": "spender",
          "type": "address"
        },
        {
          "internalType": "uint256",
          "name": "subtractedValue",
          "type": "uint256"
        }
      ],
      "name": "decreaseAllowance",
      "outputs": [
        {
          "internalType": "bool",
          "name": "",
          "type": "bool"
        }
      ],
      "stateMutability": "nonpayable",
      "type": "function"
    },
    {
      "inputs": [
        {
          "internalType": "address",
          "name": "userAddress",
          "type": "address"
        },
        {
          "internalType": "bytes",
          "name": "functionSignature",
          "type": "bytes"
        },
        {
          "internalType": "bytes32",
          "name": "sigR",
          "type": "bytes32"
        },
        {
          "internalType": "bytes32",
          "name": "sigS",
          "type": "bytes32"
        },
        {
          "internalType": "uint8",
          "name": "sigV",
          "type": "uint8"
        }
      ],
      "name": "executeMetaTransaction",
      "outputs": [
        {
          "internalType": "bytes",
          "name": "",
          "type": "bytes"
        }
      ],
      "stateMutability": "payable",
      "type": "function"
    },
    {
      "inputs": [],
      "name": "getChainID",
      "outputs": [
        {
          "internalType": "uint256",
          "name": "id",
          "type": "uint256"
        }
      ],
      "stateMutability": "view",
      "type": "function"
    },
    {
      "inputs": [
        {
          "internalType": "address",
          "name": "user",
          "type": "address"
        }
      ],
      "name": "getNonce",
      "outputs": [
        {
          "internalType": "uint256",
          "name": "nonce",
          "type": "uint256"
        }
      ],
      "stateMutability": "view",
      "type": "function"
    },
    {
      "inputs": [
        {
          "internalType": "address",
          "name": "spender",
          "type": "address"
        },
        {
          "internalType": "uint256",
          "name": "addedValue",
          "type": "uint256"
        }
      ],
      "name": "increaseAllowance",
      "outputs": [
        {
          "internalType": "bool",
          "name": "",
          "type": "bool"
        }
      ],
      "stateMutability": "nonpayable",
      "type": "function"
    },
    {
      "inputs": [],
      "name": "initialSupply",
      "outputs": [
        {
          "internalType": "uint256",
          "name": "",
          "type": "uint256"
        }
      ],
      "stateMutability": "view",
      "type": "function"
    },
    {
      "inputs": [
        {
          "internalType": "uint256",
          "name": "supply",
          "type": "uint256"
        }
      ],
      "name": "mint",
      "outputs": [],
      "stateMutability": "nonpayable",
      "type": "function"
    },
    {
      "inputs": [],
      "name": "name",
      "outputs": [
        {
          "internalType": "string",
          "name": "",
          "type": "string"
        }
      ],
      "stateMutability": "view",
      "type": "function"
    },
    {
      "inputs": [],
      "name": "symbol",
      "outputs": [
        {
          "internalType": "string",
          "name": "",
          "type": "string"
        }
      ],
      "stateMutability": "view",
      "type": "function"
    },
    {
      "inputs": [],
      "name": "totalSupply",
      "outputs": [
        {
          "internalType": "uint256",
          "name": "",
          "type": "uint256"
        }
      ],
      "stateMutability": "view",
      "type": "function"
    },
    {
      "inputs": [
        {
          "internalType": "address",
          "name": "to",
          "type": "address"
        },
        {
          "internalType": "uint256",
          "name": "amount",
          "type": "uint256"
        }
      ],
      "name": "transfer",
      "outputs": [
        {
          "internalType": "bool",
          "name": "",
          "type": "bool"
        }
      ],
      "stateMutability": "nonpayable",
      "type": "function"
    },
    {
      "inputs": [
        {
          "internalType": "address",
          "name": "from",
          "type": "address"
        },
        {
          "internalType": "address",
          "name": "to",
          "type": "address"
        },
        {
          "internalType": "uint256",
          "name": "amount",
          "type": "uint256"
        }
      ],
      "name": "transferFrom",
      "outputs": [
        {
          "internalType": "bool",
          "name": "",
          "type": "bool"
        }
      ],
      "stateMutability": "nonpayable",
      "type": "function"
    }
  ],
  "bytecode": "0x608060405268056bc75e2d631000006008553480156200001e57600080fd5b5060405162002b6f38038062002b6f8339818101604052810190620000449190620004f9565b6040518060400160405280600b81526020017f47696e657465546f6b656e0000000000000000000000000000000000000000008152506040518060400160405280600181526020017f3100000000000000000000000000000000000000000000000000000000000000815250600382828287878160039080519060200190620000cf929190620003d7565b508060049080519060200190620000e8929190620003d7565b5050508060068190555060405180608001604052806052815260200162002b1d605291398051906020012083805190602001208380519060200120620001336200019760201b60201c565b306040516020016200014a959493929190620005c6565b604051602081830303815290604052805190602001206005819055505050505050506200018f62000180620001a160201b60201c565b6008546200025460201b60201c565b5050620008e0565b6000600654905090565b60003073ffffffffffffffffffffffffffffffffffffffff163373ffffffffffffffffffffffffffffffffffffffff1614156200024d57600080368080601f016020809104026020016040519081016040528093929190818152602001838380828437600081840152601f19601f820116905080830192505050505050509050600080369050905073ffffffffffffffffffffffffffffffffffffffff81830151169250505062000251565b3390505b90565b600073ffffffffffffffffffffffffffffffffffffffff168273ffffffffffffffffffffffffffffffffffffffff161415620002c7576040517f08c379a0000000000000000000000000000000000000000000000000000000008152600401620002be9062000623565b60405180910390fd5b620002db60008383620003cd60201b60201c565b8060026000828254620002ef9190620006d2565b92505081905550806000808473ffffffffffffffffffffffffffffffffffffffff1673ffffffffffffffffffffffffffffffffffffffff1681526020019081526020016000206000828254620003469190620006d2565b925050819055508173ffffffffffffffffffffffffffffffffffffffff16600073ffffffffffffffffffffffffffffffffffffffff167fddf252ad1be2c89b69c2b068fc378daa952ba7f163c4a11628f55a4df523b3ef83604051620003ad919062000645565b60405180910390a3620003c960008383620003d260201b60201c565b5050565b505050565b505050565b828054620003e590620007ad565b90600052602060002090601f01602090048101928262000409576000855562000455565b82601f106200042457805160ff191683800117855562000455565b8280016001018555821562000455579182015b828111156200045457825182559160200191906001019062000437565b5b50905062000464919062000468565b5090565b5b808211156200048357600081600090555060010162000469565b5090565b60006200049e62000498846200068b565b62000662565b905082815260208101848484011115620004b757600080fd5b620004c484828562000777565b509392505050565b600082601f830112620004de57600080fd5b8151620004f084826020860162000487565b91505092915050565b600080604083850312156200050d57600080fd5b600083015167ffffffffffffffff8111156200052857600080fd5b6200053685828601620004cc565b925050602083015167ffffffffffffffff8111156200055457600080fd5b6200056285828601620004cc565b9150509250929050565b62000577816200072f565b82525050565b620005888162000743565b82525050565b60006200059d601f83620006c1565b9150620005aa82620008b7565b602082019050919050565b620005c0816200076d565b82525050565b600060a082019050620005dd60008301886200057d565b620005ec60208301876200057d565b620005fb60408301866200057d565b6200060a6060830185620005b5565b6200061960808301846200056c565b9695505050505050565b600060208201905081810360008301526200063e816200058e565b9050919050565b60006020820190506200065c6000830184620005b5565b92915050565b60006200066e62000681565b90506200067c8282620007e3565b919050565b6000604051905090565b600067ffffffffffffffff821115620006a957620006a862000877565b5b620006b482620008a6565b9050602081019050919050565b600082825260208201905092915050565b6000620006df826200076d565b9150620006ec836200076d565b9250827fffffffffffffffffffffffffffffffffffffffffffffffffffffffffffffffff0382111562000724576200072362000819565b5b828201905092915050565b60006200073c826200074d565b9050919050565b6000819050919050565b600073ffffffffffffffffffffffffffffffffffffffff82169050919050565b6000819050919050565b60005b83811015620007975780820151818401526020810190506200077a565b83811115620007a7576000848401525b50505050565b60006002820490506001821680620007c657607f821691505b60208210811415620007dd57620007dc62000848565b5b50919050565b620007ee82620008a6565b810181811067ffffffffffffffff8211171562000810576200080f62000877565b5b80604052505050565b7f4e487b7100000000000000000000000000000000000000000000000000000000600052601160045260246000fd5b7f4e487b7100000000000000000000000000000000000000000000000000000000600052602260045260246000fd5b7f4e487b7100000000000000000000000000000000000000000000000000000000600052604160045260246000fd5b6000601f19601f8301169050919050565b7f45524332303a206d696e7420746f20746865207a65726f206164647265737300600082015250565b61222d80620008f06000396000f3fe6080604052600436106100f35760003560e01c8063395093511161008a578063a0712d6811610059578063a0712d681461035b578063a457c2d714610384578063a9059cbb146103c1578063dd62ed3e146103fe576100f3565b8063395093511461028b578063564b81ef146102c857806370a08231146102f357806395d89b4114610330576100f3565b806323b872dd116100c657806323b872dd146101bb5780632d0335ab146101f8578063313ce56714610235578063378dc3dc14610260576100f3565b806306fdde03146100f8578063095ea7b3146101235780630c53c51c1461016057806318160ddd14610190575b600080fd5b34801561010457600080fd5b5061010d61043b565b60405161011a9190611a0a565b60405180910390f35b34801561012f57600080fd5b5061014a6004803603810190610145919061157e565b6104cd565b6040516101579190611943565b60405180910390f35b61017a600480360381019061017591906114ef565b6104f0565b60405161018791906119e8565b60405180910390f35b34801561019c57600080fd5b506101a5610762565b6040516101b29190611b6c565b60405180910390f35b3480156101c757600080fd5b506101e260048036038101906101dd91906114a0565b61076c565b6040516101ef9190611943565b60405180910390f35b34801561020457600080fd5b5061021f600480360381019061021a919061143b565b61079b565b60405161022c9190611b6c565b60405180910390f35b34801561024157600080fd5b5061024a6107e4565b6040516102579190611b87565b60405180910390f35b34801561026c57600080fd5b506102756107ed565b6040516102829190611b6c565b60405180910390f35b34801561029757600080fd5b506102b260048036038101906102ad919061157e565b6107f3565b6040516102bf9190611943565b60405180910390f35b3480156102d457600080fd5b506102dd61089d565b6040516102ea9190611b6c565b60405180910390f35b3480156102ff57600080fd5b5061031a6004803603810190610315919061143b565b6108a7565b6040516103279190611b6c565b60405180910390f35b34801561033c57600080fd5b506103456108ef565b6040516103529190611a0a565b60405180910390f35b34801561036757600080fd5b50610382600480360381019061037d91906115ba565b610981565b005b34801561039057600080fd5b506103ab60048036038101906103a6919061157e565b610995565b6040516103b89190611943565b60405180910390f35b3480156103cd57600080fd5b506103e860048036038101906103e3919061157e565b610a7f565b6040516103f59190611943565b60405180910390f35b34801561040a57600080fd5b5061042560048036038101906104209190611464565b610aa2565b6040516104329190611b6c565b60405180910390f35b60606003805461044a90611d4f565b80601f016020809104026020016040519081016040528092919081815260200182805461047690611d4f565b80156104c35780601f10610498576101008083540402835291602001916104c3565b820191906000526020600020905b8154815290600101906020018083116104a657829003601f168201915b5050505050905090565b6000806104d8610b29565b90506104e5818585610b31565b600191505092915050565b606060006040518060600160405280600760008a73ffffffffffffffffffffffffffffffffffffffff1673ffffffffffffffffffffffffffffffffffffffff1681526020019081526020016000205481526020018873ffffffffffffffffffffffffffffffffffffffff1681526020018781525090506105738782878787610cfc565b6105b2576040517f08c379a00000000000000000000000000000000000000000000000000000000081526004016105a990611acc565b60405180910390fd5b6000803073ffffffffffffffffffffffffffffffffffffffff16888a6040516020016105df9291906118a6565b6040516020818303038152906040526040516105fb919061188f565b6000604051808303816000865af19150503d8060008114610638576040519150601f19603f3d011682016040523d82523d6000602084013e61063d565b606091505b509150915081610682576040517f08c379a000000000000000000000000000000000000000000000000000000000815260040161067990611a8c565b60405180910390fd5b6106d56001600760008c73ffffffffffffffffffffffffffffffffffffffff1673ffffffffffffffffffffffffffffffffffffffff16815260200190815260200160002054610d9690919063ffffffff16565b600760008b73ffffffffffffffffffffffffffffffffffffffff1673ffffffffffffffffffffffffffffffffffffffff168152602001908152602001600020819055507f5845892132946850460bff5a0083f71031bc5bf9aadcd40f1de79423eac9b10b89338a60405161074b93929190611905565b60405180910390a180935050505095945050505050565b6000600254905090565b600080610777610b29565b9050610784858285610dac565b61078f858585610e38565b60019150509392505050565b6000600760008373ffffffffffffffffffffffffffffffffffffffff1673ffffffffffffffffffffffffffffffffffffffff168152602001908152602001600020549050919050565b60006012905090565b60085481565b6000806107fe610b29565b9050610892818585600160008673ffffffffffffffffffffffffffffffffffffffff1673ffffffffffffffffffffffffffffffffffffffff16815260200190815260200160002060008973ffffffffffffffffffffffffffffffffffffffff1673ffffffffffffffffffffffffffffffffffffffff1681526020019081526020016000205461088d9190611c46565b610b31565b600191505092915050565b6000600654905090565b60008060008373ffffffffffffffffffffffffffffffffffffffff1673ffffffffffffffffffffffffffffffffffffffff168152602001908152602001600020549050919050565b6060600480546108fe90611d4f565b80601f016020809104026020016040519081016040528092919081815260200182805461092a90611d4f565b80156109775780601f1061094c57610100808354040283529160200191610977565b820191906000526020600020905b81548152906001019060200180831161095a57829003601f168201915b5050505050905090565b61099261098c6110b9565b8261116a565b50565b6000806109a0610b29565b90506000600160008373ffffffffffffffffffffffffffffffffffffffff1673ffffffffffffffffffffffffffffffffffffffff16815260200190815260200160002060008673ffffffffffffffffffffffffffffffffffffffff1673ffffffffffffffffffffffffffffffffffffffff16815260200190815260200160002054905083811015610a66576040517f08c379a0000000000000000000000000000000000000000000000000000000008152600401610a5d90611b2c565b60405180910390fd5b610a738286868403610b31565b60019250505092915050565b600080610a8a610b29565b9050610a97818585610e38565b600191505092915050565b6000600160008473ffffffffffffffffffffffffffffffffffffffff1673ffffffffffffffffffffffffffffffffffffffff16815260200190815260200160002060008373ffffffffffffffffffffffffffffffffffffffff1673ffffffffffffffffffffffffffffffffffffffff16815260200190815260200160002054905092915050565b600033905090565b600073ffffffffffffffffffffffffffffffffffffffff168373ffffffffffffffffffffffffffffffffffffffff161415610ba1576040517f08c379a0000000000000000000000000000000000000000000000000000000008152600401610b9890611b0c565b60405180910390fd5b600073ffffffffffffffffffffffffffffffffffffffff168273ffffffffffffffffffffffffffffffffffffffff161415610c11576040517f08c379a0000000000000000000000000000000000000000000000000000000008152600401610c0890611a4c565b60405180910390fd5b80600160008573ffffffffffffffffffffffffffffffffffffffff1673ffffffffffffffffffffffffffffffffffffffff16815260200190815260200160002060008473ffffffffffffffffffffffffffffffffffffffff1673ffffffffffffffffffffffffffffffffffffffff168152602001908152602001600020819055508173ffffffffffffffffffffffffffffffffffffffff168373ffffffffffffffffffffffffffffffffffffffff167f8c5be1e5ebec7d5bd14f71427d1e84f3dd0314c0f7b2291e5b200ac8c7c3b92583604051610cef9190611b6c565b60405180910390a3505050565b60006001610d11610d0c876112ca565b611332565b83868660405160008152602001604052604051610d3194939291906119a3565b6020604051602081039080840390855afa158015610d53573d6000803e3d6000fd5b5050506020604051035173ffffffffffffffffffffffffffffffffffffffff168673ffffffffffffffffffffffffffffffffffffffff1614905095945050505050565b60008183610da49190611c46565b905092915050565b6000610db88484610aa2565b90507fffffffffffffffffffffffffffffffffffffffffffffffffffffffffffffffff8114610e325781811015610e24576040517f08c379a0000000000000000000000000000000000000000000000000000000008152600401610e1b90611a6c565b60405180910390fd5b610e318484848403610b31565b5b50505050565b600073ffffffffffffffffffffffffffffffffffffffff168373ffffffffffffffffffffffffffffffffffffffff161415610ea8576040517f08c379a0000000000000000000000000000000000000000000000000000000008152600401610e9f90611aec565b60405180910390fd5b600073ffffffffffffffffffffffffffffffffffffffff168273ffffffffffffffffffffffffffffffffffffffff161415610f18576040517f08c379a0000000000000000000000000000000000000000000000000000000008152600401610f0f90611a2c565b60405180910390fd5b610f2383838361136b565b60008060008573ffffffffffffffffffffffffffffffffffffffff1673ffffffffffffffffffffffffffffffffffffffff16815260200190815260200160002054905081811015610fa9576040517f08c379a0000000000000000000000000000000000000000000000000000000008152600401610fa090611aac565b60405180910390fd5b8181036000808673ffffffffffffffffffffffffffffffffffffffff1673ffffffffffffffffffffffffffffffffffffffff16815260200190815260200160002081905550816000808573ffffffffffffffffffffffffffffffffffffffff1673ffffffffffffffffffffffffffffffffffffffff168152602001908152602001600020600082825461103c9190611c46565b925050819055508273ffffffffffffffffffffffffffffffffffffffff168473ffffffffffffffffffffffffffffffffffffffff167fddf252ad1be2c89b69c2b068fc378daa952ba7f163c4a11628f55a4df523b3ef846040516110a09190611b6c565b60405180910390a36110b3848484611370565b50505050565b60003073ffffffffffffffffffffffffffffffffffffffff163373ffffffffffffffffffffffffffffffffffffffff16141561116357600080368080601f016020809104026020016040519081016040528093929190818152602001838380828437600081840152601f19601f820116905080830192505050505050509050600080369050905073ffffffffffffffffffffffffffffffffffffffff818301511692505050611167565b3390505b90565b600073ffffffffffffffffffffffffffffffffffffffff168273ffffffffffffffffffffffffffffffffffffffff1614156111da576040517f08c379a00000000000000000000000000000000000000000000000000000000081526004016111d190611b4c565b60405180910390fd5b6111e66000838361136b565b80600260008282546111f89190611c46565b92505081905550806000808473ffffffffffffffffffffffffffffffffffffffff1673ffffffffffffffffffffffffffffffffffffffff168152602001908152602001600020600082825461124d9190611c46565b925050819055508173ffffffffffffffffffffffffffffffffffffffff16600073ffffffffffffffffffffffffffffffffffffffff167fddf252ad1be2c89b69c2b068fc378daa952ba7f163c4a11628f55a4df523b3ef836040516112b29190611b6c565b60405180910390a36112c660008383611370565b5050565b60006040518060800160405280604381526020016121b5604391398051906020012082600001518360200151846040015180519060200120604051602001611315949392919061195e565b604051602081830303815290604052805190602001209050919050565b600061133c611375565b8260405160200161134e9291906118ce565b604051602081830303815290604052805190602001209050919050565b505050565b505050565b6000600554905090565b600061139261138d84611bc7565b611ba2565b9050828152602081018484840111156113aa57600080fd5b6113b5848285611d0d565b509392505050565b6000813590506113cc81612158565b92915050565b6000813590506113e18161216f565b92915050565b600082601f8301126113f857600080fd5b813561140884826020860161137f565b91505092915050565b60008135905061142081612186565b92915050565b6000813590506114358161219d565b92915050565b60006020828403121561144d57600080fd5b600061145b848285016113bd565b91505092915050565b6000806040838503121561147757600080fd5b6000611485858286016113bd565b9250506020611496858286016113bd565b9150509250929050565b6000806000606084860312156114b557600080fd5b60006114c3868287016113bd565b93505060206114d4868287016113bd565b92505060406114e586828701611411565b9150509250925092565b600080600080600060a0868803121561150757600080fd5b6000611515888289016113bd565b955050602086013567ffffffffffffffff81111561153257600080fd5b61153e888289016113e7565b945050604061154f888289016113d2565b9350506060611560888289016113d2565b925050608061157188828901611426565b9150509295509295909350565b6000806040838503121561159157600080fd5b600061159f858286016113bd565b92505060206115b085828601611411565b9150509250929050565b6000602082840312156115cc57600080fd5b60006115da84828501611411565b91505092915050565b6115ec81611cae565b82525050565b6115fb81611c9c565b82525050565b61161261160d82611c9c565b611db2565b82525050565b61162181611cc0565b82525050565b61163081611ccc565b82525050565b61164761164282611ccc565b611dc4565b82525050565b600061165882611bf8565b6116628185611c0e565b9350611672818560208601611d1c565b61167b81611e6d565b840191505092915050565b600061169182611bf8565b61169b8185611c1f565b93506116ab818560208601611d1c565b80840191505092915050565b60006116c282611c03565b6116cc8185611c2a565b93506116dc818560208601611d1c565b6116e581611e6d565b840191505092915050565b60006116fd602383611c2a565b915061170882611e8b565b604082019050919050565b6000611720602283611c2a565b915061172b82611eda565b604082019050919050565b6000611743600283611c3b565b915061174e82611f29565b600282019050919050565b6000611766601d83611c2a565b915061177182611f52565b602082019050919050565b6000611789601d83611c2a565b915061179482611f7b565b602082019050919050565b60006117ac602683611c2a565b91506117b782611fa4565b604082019050919050565b60006117cf602183611c2a565b91506117da82611ff3565b604082019050919050565b60006117f2602583611c2a565b91506117fd82612042565b604082019050919050565b6000611815602483611c2a565b915061182082612091565b604082019050919050565b6000611838602583611c2a565b9150611843826120e0565b604082019050919050565b600061185b601f83611c2a565b91506118668261212f565b602082019050919050565b61187a81611cf6565b82525050565b61188981611d00565b82525050565b600061189b8284611686565b915081905092915050565b60006118b28285611686565b91506118be8284611601565b6014820191508190509392505050565b60006118d982611736565b91506118e58285611636565b6020820191506118f58284611636565b6020820191508190509392505050565b600060608201905061191a60008301866115f2565b61192760208301856115e3565b8181036040830152611939818461164d565b9050949350505050565b60006020820190506119586000830184611618565b92915050565b60006080820190506119736000830187611627565b6119806020830186611871565b61198d60408301856115f2565b61199a6060830184611627565b95945050505050565b60006080820190506119b86000830187611627565b6119c56020830186611880565b6119d26040830185611627565b6119df6060830184611627565b95945050505050565b60006020820190508181036000830152611a02818461164d565b905092915050565b60006020820190508181036000830152611a2481846116b7565b905092915050565b60006020820190508181036000830152611a45816116f0565b9050919050565b60006020820190508181036000830152611a6581611713565b9050919050565b60006020820190508181036000830152611a8581611759565b9050919050565b60006020820190508181036000830152611aa58161177c565b9050919050565b60006020820190508181036000830152611ac58161179f565b9050919050565b60006020820190508181036000830152611ae5816117c2565b9050919050565b60006020820190508181036000830152611b05816117e5565b9050919050565b60006020820190508181036000830152611b2581611808565b9050919050565b60006020820190508181036000830152611b458161182b565b9050919050565b60006020820190508181036000830152611b658161184e565b9050919050565b6000602082019050611b816000830184611871565b92915050565b6000602082019050611b9c6000830184611880565b92915050565b6000611bac611bbd565b9050611bb88282611d81565b919050565b6000604051905090565b600067ffffffffffffffff821115611be257611be1611e3e565b5b611beb82611e6d565b9050602081019050919050565b600081519050919050565b600081519050919050565b600082825260208201905092915050565b600081905092915050565b600082825260208201905092915050565b600081905092915050565b6000611c5182611cf6565b9150611c5c83611cf6565b9250827fffffffffffffffffffffffffffffffffffffffffffffffffffffffffffffffff03821115611c9157611c90611de0565b5b828201905092915050565b6000611ca782611cd6565b9050919050565b6000611cb982611cd6565b9050919050565b60008115159050919050565b6000819050919050565b600073ffffffffffffffffffffffffffffffffffffffff82169050919050565b6000819050919050565b600060ff82169050919050565b82818337600083830152505050565b60005b83811015611d3a578082015181840152602081019050611d1f565b83811115611d49576000848401525b50505050565b60006002820490506001821680611d6757607f821691505b60208210811415611d7b57611d7a611e0f565b5b50919050565b611d8a82611e6d565b810181811067ffffffffffffffff82111715611da957611da8611e3e565b5b80604052505050565b6000611dbd82611dce565b9050919050565b6000819050919050565b6000611dd982611e7e565b9050919050565b7f4e487b7100000000000000000000000000000000000000000000000000000000600052601160045260246000fd5b7f4e487b7100000000000000000000000000000000000000000000000000000000600052602260045260246000fd5b7f4e487b7100000000000000000000000000000000000000000000000000000000600052604160045260246000fd5b6000601f19601f8301169050919050565b60008160601b9050919050565b7f45524332303a207472616e7366657220746f20746865207a65726f206164647260008201527f6573730000000000000000000000000000000000000000000000000000000000602082015250565b7f45524332303a20617070726f766520746f20746865207a65726f20616464726560008201527f7373000000000000000000000000000000000000000000000000000000000000602082015250565b7f1901000000000000000000000000000000000000000000000000000000000000600082015250565b7f45524332303a20696e73756666696369656e7420616c6c6f77616e6365000000600082015250565b7f46756e6374696f6e2063616c6c206e6f74207375636365737366756c6c000000600082015250565b7f45524332303a207472616e7366657220616d6f756e742065786365656473206260008201527f616c616e63650000000000000000000000000000000000000000000000000000602082015250565b7f5369676e657220616e64207369676e617475726520646f206e6f74206d61746360008201527f6800000000000000000000000000000000000000000000000000000000000000602082015250565b7f45524332303a207472616e736665722066726f6d20746865207a65726f20616460008201527f6472657373000000000000000000000000000000000000000000000000000000602082015250565b7f45524332303a20617070726f76652066726f6d20746865207a65726f2061646460008201527f7265737300000000000000000000000000000000000000000000000000000000602082015250565b7f45524332303a2064656372656173656420616c6c6f77616e63652062656c6f7760008201527f207a65726f000000000000000000000000000000000000000000000000000000602082015250565b7f45524332303a206d696e7420746f20746865207a65726f206164647265737300600082015250565b61216181611c9c565b811461216c57600080fd5b50565b61217881611ccc565b811461218357600080fd5b50565b61218f81611cf6565b811461219a57600080fd5b50565b6121a681611d00565b81146121b157600080fd5b5056fe4d6574615472616e73616374696f6e2875696e74323536206e6f6e63652c616464726573732066726f6d2c62797465732066756e6374696f6e5369676e617475726529a264697066735822122072215d0f2f70d1c14095132397f12f581beb3a7b743347587c942db5b76cfd0064736f6c63430008040033454950373132446f6d61696e28737472696e67206e616d652c737472696e672076657273696f6e2c75696e7432353620636861696e49642c6164647265737320766572696679696e67436f6e747261637429",
  "linkReferences": {},
  "deployedLinkReferences": {}
}